:100000001EC042C041C040C03FC035C13DC03CC021
:100010003BC03AC039C038C037C036C035C0000018
:100020000000370000000000380002020202020255
:10003000010204081020010300000400F301112450
:100040001FBECFE5D2E0DEBFCDBF10E0A0E6B0E03E
:10005000E4E0F5E002C005900D92A036B107D9F7B3
:1000600020E0A0E6B0E001C01D92A137B207E1F7A1
:1000700010E0CFE1D0E003C02197FE013BD2CE31AA
:10008000D107D1F742D13CC2BBCF3FB7F8948091A2
:100090006D0090916E00A0916F00B091700022B73A
:1000A00008B601FE05C02F3F19F00196A11DB11D34
:1000B0003FBFBA2FA92F982F8827BC01CD01620F0F
:1000C000711D811D911D43E0660F771F881F991FC9
:1000D0004A95D1F7089587FF09C08F7771F1813074
:1000E00071F1823071F1833071F18FEF90E0FC019A
:1000F000EA5CFF4F3491FC01E05DFF4F2491FC016D
:10010000E65DFF4FE491EE23B9F0332329F031305F
:10011000E1F48AB58F778ABDF0E0EE0FFF1FEC5D4A
:10012000FF4FA591B4918FB7611120C0F894EC9165
:1001300020952E232C938FBF089585E0D7CF82E0A2
:10014000D5CF84E0D3CF83E0D1CF323019F48AB554
:100150008F7DE1CF333021F480B78F7D80BFDCCF3E
:100160003430D1F68CB58F7D8CBDD6CFF894EC9120
:100170002E2BE0CFCF93DF9387FF09C08F7779F1E4
:10018000813079F1823079F1833079F18FEF90E02D
:10019000FC01E05DFF4F2491865D9F4FFC0184913F
:1001A0008823D1F090E0880F991FFC01E25EFF4F99
:1001B000A591B491FC01EC5DFF4FC591D491611103
:1001C00016C09FB7F8948C91E22FE0958E238C9304
:1001D0002881E223E8839FBFDF91CF91089585E0D6
:1001E000D6CF82E0D4CF84E0D2CF83E0D0CF8FB718
:1001F000F894EC91E22BEC938FBFEECF1F93CF934B
:10020000DF93182FEB0161E0B5DF1C161D0634F0FB
:1002100060E0812FDF91CF911F915DCFCF3FD1055E
:1002200014F061E0F6CFE12FF0E0EA5CFF4FE491DB
:10023000E13041F48AB580688ABDC9BDDF91CF91B4
:100240001F910895E23029F48AB580628ABDC8BD45
:10025000F5CFE33029F480B7806280BFCEBDEECF0A
:10026000E43029F48CB580628CBDCBBDE7CFC038BB
:10027000D105BCF6CDCF1F920F920FB60F9211246D
:100280002F933F938F939F93AF93BF938091690078
:1002900090916A00A0916B00B0916C003091680061
:1002A00026E0230F2D3768F129E8230F0396A11DBF
:1002B000B11D209368008093690090936A00A09319
:1002C0006B00B0936C0080916D0090916E00A091D6
:1002D0006F00B09170000196A11DB11D80936D005B
:1002E00090936E00A0936F00B0937000BF91AF9198
:1002F0009F918F913F912F910F900FBE0F901F9064
:1003000018950296A11DB11DD4CF80E886BDC1E02D
:10031000C6BD83E08ABD83BF789489B7826089BFF8
:1003200080E48CBD8FEF8DBD87EC80BF86E886B9F9
:1003300060E080E81FDF1092640060E0809166005A
:10034000CADE61E080916700C6DEC0936000609104
:10035000630070E08091650051DFC12C94E0D92EDC
:10036000E12CF12C17B887B187B9369A3699FECFB0
:1003700084B165B1762F682F072E000C880B990B7E
:100380002FEF30E040E050E05ED0A701960174D03E
:100390002093630080916000882329F0622F70E031
:1003A000809165002BDF71DEEB0184E1882E912CBA
:1003B000A12CB12C6ADE6C1B7D0B683E734068F08B
:1003C00081149104A104B10469F281E0881A9108B2
:1003D000A108B108C851DC4FEDCF81149104A104EC
:1003E000B10441F7BFCF83E08093650082E0809342
:1003F000660084E08093670061E083E0BBDE61E03B
:1004000080916600B7DE61E080916700B3DE1092F4
:10041000600070E060E080916500F0DE10926300A3
:1004200080916000882329F070E060E08091650091
:10043000E5DE1092640060E0809166004CDE61E0D1
:100440008091670048CEEE27FF27AA27BB2708C068
:10045000A20FB31FE41FF51F220F331F441F551FA8
:10046000969587957795679598F37040A9F70097CB
:1004700099F7BD01CF010895052E97FB16F400945E
:100480000FD057FD05D014D007FC02D046F408C0A9
:1004900050954095309521953F4F4F4F5F4F0895B0
:1004A00090958095709561957F4F8F4F9F4F0895E0
:1004B000A1E21A2EAA1BBB1BFD010DC0AA1FBB1F68
:1004C000EE1FFF1FA217B307E407F50720F0A21BDA
:1004D000B30BE40BF50B661F771F881F991F1A9447
:1004E00069F760957095809590959B01AC01BD0171
:1004F000CF010895EE0FFF1F0590F491E02D0994B0
:04050000F894FFCF9D
:00000001FF
